:020000040800F2
:1000000000280020E104000831050008310500083F
:100010003105000831050008310500080000000026
:100020000000000000000000000000003105000892
:100030003105000800000000310500083105000806
:1000400031050008310500083105000831050008B8
:1000500031050008310500083105000831050008A8
:100060003105000831050008310500083105000898
:100070003105000831050008310500083105000888
:100080003105000831050008310500083105000878
:100090003105000831050008310500083105000868
:1000A0003105000831050008310500083105000858
:1000B0003105000831050008310500083105000848
:1000C0003105000831050008310500083105000838
:1000D0003105000831050008310500083105000828
:1000E0003105000831050008000000003105000856
:1000F0003105000831050008310500083105000808
:1001000031050008310500083105000831050008F7
:1001100031050008310500083105000831050008E7
:1001200031050008310500083105000831050008D7
:1001300010B5054C237833B9044B13B10448AFF321
:1001400000800123237010BD080000200000000083
:100150007C05000808B5034B1BB103490348AFF306
:10016000008008BD000000000C0000207C05000895
:1001700080B400AF00BFBD4680BC704780B400AF04
:10018000034B044A1A6000BFBD4680BC704700BFE5
:10019000300000200102000880B400AF034B044A85
:1001A0001A6000BFBD4680BC704700BF3000002011
:1001B000D901000880B400AF044B00221A70044B30
:1001C000044A1A6000BFBD4680BC70472C00002066
:1001D00030000020B501000880B500AF054B0222B9
:1001E0001A70002000F0F6F8034B044A1A6000BFB2
:1001F00080BD00BF2C00002030000020B5010008A9
:1002000080B500AF054B01221A70012000F0E2F822
:10021000034B044A1A6000BF80BD00BF2C000020C1
:1002200030000020B501000880B483B000AF7860D2
:100230007B68054A1360054B054A1A6000BF0C37FE
:10024000BD4680BC704700BF24000020380000205D
:100250005502000880B500AF094B00221A70094B07
:100260001A68094B1B689A4203D8084B084A1A605F
:1002700004E000F00FF8054B054A1A6000BF80BD8E
:10028000340000202400002000000020380000205E
:100290005502000880B400AF034B044A1A6000BF47
:1002A000BD4680BC704700BF40000020D50200085A
:1002B00080B500AF044B00221A70FFF75FFF034BBD
:1002C000034A1A6000BF80BD3C00002040000020AF
:1002D000B102000880B500AF044B01221A70FFF78D
:1002E0005BFF034B034A1A6000BF80BD3C00002047
:1002F00040000020F902000880B500AF074B022241
:100300001A70FFF73BFF064B1B68184600F046F8D3
:10031000044B054A1A6000BF80BD00BF3C000020AE
:100320000400002040000020B102000880B400AFAB
:1003300000BFBD4680BC704780B500AF094B0022AE
:100340001A7000F03BF803461A46074B1A60064B3A
:100350001B681846FFF768FF044B054A1A6000BF88
:1003600080BD00BF4400002028000020480000207D
:100370007503000880B500AF054B01221A704CF2DE
:10038000503000F00BF8034B034A1A6000BF80BDE9
:1003900044000020480000203903000880B483B0E6
:1003A00000AF786002E07B68013B7B607B68002BDC
:1003B000F9D100BF0C37BD4680BC704780B400AF98
:1003C000034B1B68DBB21846BD4680BC704700BFBC
:1003D0000808014080B483B000AF78607B68012BCF
:1003E00006D10A4B1B68094A43F40053136008E026
:1003F0007B68002B05D1054B1B68044A23F400538E
:10040000136000BF0C37BD4680BC70470C0801402C
:1004100080B400AF0F4B1B680E4A43F00403136017
:100420000D4B1B680C4A23F4700313600A4B0A4AF5
:100430001B681360094B1B68084A23F470031360A0
:10044000064B1B68054A43F02233136000BFBD46CC
:1004500080BC7047181002400008014004080140A9
:1004600080B500AFFFF762FFFFF782FE064B074A39
:100470001A60074B074A1A60074B084A1A60084B74
:10048000084A1A6000BF80BD4800002039030008F8
:10049000380000202902000840000020B1020008B6
:1004A00030000020B501000880B500AFFFF7B0FFB5
:1004B000FFF7D6FF064B1B689847064B1B6898470B
:1004C000054B1B689847054B1B689847F2E700BF30
:1004D00048000020380000204000002030000020AC
:1004E0000D488546AFF300800C480D490D4A0023A6
:1004F00002E0D458C4500433C4188C42F9D30A4AD9
:100500000A4C002301E013600432A242FBD300F046
:1005100011F8FFF7C9FFFEE70028002000000020C7
:10052000080000209C050008080000204C00002066
:10053000FEE7000070B500250C4E0D4CA41BA41066
:10054000A54209D100F01AF800250A4E0A4CA41B56
:10055000A410A54205D170BD56F825309847013545
:10056000EEE756F8253098470135F2E79405000884
:10057000940500089405000898050008F8B500BF28
:10058000F8BC08BC9E467047F8B500BFF8BC08BC74
:040590009E467047CC
:040594005501000805
:040598003101000825
:08059C001400000050C3000030
:04000005080004E10A
:00000001FF
